{
  "transactions": [
    {
      "hash": "0x302ede4aa2c0e154764e501a032d79a4c1c441966f858fc1a86a5b8dca5bc4a5",
      "transactionType": "CALL",
      "contractName": null,
      "contractAddress": "0xf32a3225869f494ce90c07bea755a24aa2182479",
      "function": "setKYCLevel(address,uint256)",
      "arguments": [
        "0x374F741d9e53091D8ADaA43844ac394aDb84180A",
        "2"
      ],
      "transaction": {
        "from": "0xc1951ef408265a3b90d07b0be030e63ccc7da6c6",
        "to": "0xf32a3225869f494ce90c07bea755a24aa2182479",
        "gas": "0xfb8e",
        "value": "0x0",
        "input": "0x0c6b4b4f000000000000000000000000374f741d9e53091d8adaa43844ac394adb84180a0000000000000000000000000000000000000000000000000000000000000002",
        "nonce": "0x282",
        "chainId": "0x6545"
      },
      "additionalContracts": [],
      "isFixedGasLimit": false
    }
  ],
  "receipts": [
    {
      "status": "0x1",
      "cumulativeGasUsed": "0xa3cd",
      "logs": [],
      "logsBloom": "0x00000000000000000000000000000000000000000000000000000000000000000000000000000000000000000000000000000000000000000000000000000000000000000000000000000000000000000000000000000000000000000000000000000000000000000000000000000000000000000000000000000000000000000000000000000000000000000000000000000000000000000000000000000000000000000000000000000000000000000000000000000000000000000000000000000000000000000000000000000000000000000000000000000000000000000000000000000000000000000000000000000000000000000000000000000000",
      "type": "0x0",
      "transactionHash": "0x302ede4aa2c0e154764e501a032d79a4c1c441966f858fc1a86a5b8dca5bc4a5",
      "transactionIndex": "0x0",
      "blockHash": "0x581ff9e90bfdb26414717663acf6cb789d9461e76c5c72d92bd27ece7744051d",
      "blockNumber": "0x137131b",
      "gasUsed": "0xa3cd",
      "effectiveGasPrice": "0x5d21dba00",
      "from": "0xc1951ef408265a3b90d07b0be030e63ccc7da6c6",
      "to": "0xf32a3225869f494ce90c07bea755a24aa2182479",
      "contractAddress": null
    }
  ],
  "libraries": [],
  "pending": [],
  "returns": {},
  "timestamp": 1734882639,
  "chain": 25925,
  "commit": "09cc4ae"
}