{
  "transactions": [
    {
      "hash": "0xdef96f3128b595cea4feac5511da30306c48f2d87d799f448065f1bf2090bbbd",
      "transactionType": "CALL",
      "contractName": null,
      "contractAddress": "0xf32a3225869f494ce90c07bea755a24aa2182479",
      "function": "setKYCLevel(address,uint256)",
      "arguments": [
        "0xEda13a68B5dd1390D0820578241363f03CA57031",
        "2"
      ],
      "transaction": {
        "from": "0xc1951ef408265a3b90d07b0be030e63ccc7da6c6",
        "to": "0xf32a3225869f494ce90c07bea755a24aa2182479",
        "gas": "0xfb8e",
        "value": "0x0",
        "input": "0x0c6b4b4f000000000000000000000000eda13a68b5dd1390d0820578241363f03ca570310000000000000000000000000000000000000000000000000000000000000002",
        "nonce": "0x1cb",
        "chainId": "0x6545"
      },
      "additionalContracts": [],
      "isFixedGasLimit": false
    }
  ],
  "receipts": [
    {
      "status": "0x1",
      "cumulativeGasUsed": "0xa3cd",
      "logs": [],
      "logsBloom": "0x00000000000000000000000000000000000000000000000000000000000000000000000000000000000000000000000000000000000000000000000000000000000000000000000000000000000000000000000000000000000000000000000000000000000000000000000000000000000000000000000000000000000000000000000000000000000000000000000000000000000000000000000000000000000000000000000000000000000000000000000000000000000000000000000000000000000000000000000000000000000000000000000000000000000000000000000000000000000000000000000000000000000000000000000000000000",
      "type": "0x0",
      "transactionHash": "0xdef96f3128b595cea4feac5511da30306c48f2d87d799f448065f1bf2090bbbd",
      "transactionIndex": "0x0",
      "blockHash": "0x2910a39558cbb5b8c4206fd2b2f5dc594a6dcbfe2dc9b60920c6ce0cb1cbd01c",
      "blockNumber": "0x1354e68",
      "gasUsed": "0xa3cd",
      "effectiveGasPrice": "0x5d21dba00",
      "from": "0xc1951ef408265a3b90d07b0be030e63ccc7da6c6",
      "to": "0xf32a3225869f494ce90c07bea755a24aa2182479",
      "contractAddress": null
    }
  ],
  "libraries": [],
  "pending": [],
  "returns": {},
  "timestamp": 1734303186,
  "chain": 25925,
  "commit": "7d49f9d"
}