{
  "transactions": [
    {
      "hash": "0x439e8fe06c0c19852b54a5f2a71078996885e43f31ab1df1ac73606669f31a39",
      "transactionType": "CALL",
      "contractName": null,
      "contractAddress": "0xf32a3225869f494ce90c07bea755a24aa2182479",
      "function": "setKYCLevel(address,uint256)",
      "arguments": [
        "0xf51F88D7f00dfE1174cD30FB4a11faD9E49ba2cB",
        "2"
      ],
      "transaction": {
        "from": "0xc1951ef408265a3b90d07b0be030e63ccc7da6c6",
        "to": "0xf32a3225869f494ce90c07bea755a24aa2182479",
        "gas": "0xfb8e",
        "value": "0x0",
        "input": "0x0c6b4b4f000000000000000000000000f51f88d7f00dfe1174cd30fb4a11fad9e49ba2cb0000000000000000000000000000000000000000000000000000000000000002",
        "nonce": "0x1b3",
        "chainId": "0x6545"
      },
      "additionalContracts": [],
      "isFixedGasLimit": false
    }
  ],
  "receipts": [
    {
      "status": "0x1",
      "cumulativeGasUsed": "0xa3cd",
      "logs": [],
      "logsBloom": "0x00000000000000000000000000000000000000000000000000000000000000000000000000000000000000000000000000000000000000000000000000000000000000000000000000000000000000000000000000000000000000000000000000000000000000000000000000000000000000000000000000000000000000000000000000000000000000000000000000000000000000000000000000000000000000000000000000000000000000000000000000000000000000000000000000000000000000000000000000000000000000000000000000000000000000000000000000000000000000000000000000000000000000000000000000000000",
      "type": "0x0",
      "transactionHash": "0x439e8fe06c0c19852b54a5f2a71078996885e43f31ab1df1ac73606669f31a39",
      "transactionIndex": "0x0",
      "blockHash": "0x78cc89a41e75e99af3c7990053d568b63742bfc890228ff3eb58ffb3244bc2bc",
      "blockNumber": "0x1353538",
      "gasUsed": "0xa3cd",
      "effectiveGasPrice": "0x5d21dba00",
      "from": "0xc1951ef408265a3b90d07b0be030e63ccc7da6c6",
      "to": "0xf32a3225869f494ce90c07bea755a24aa2182479",
      "contractAddress": null
    }
  ],
  "libraries": [],
  "pending": [],
  "returns": {},
  "timestamp": 1734270948,
  "chain": 25925,
  "commit": "91baf3b"
}