{
  "transactions": [
    {
      "hash": "0xdd6fccd8a6befd642df9fb0bbcc0a337807f480157b65af6fa5d8d6d2ed1fe49",
      "transactionType": "CALL",
      "contractName": null,
      "contractAddress": "0xf32a3225869f494ce90c07bea755a24aa2182479",
      "function": "setKYCLevel(address,uint256)",
      "arguments": [
        "0xDd6c16abE063D7ED292Eb04C8540F916d116D815",
        "2"
      ],
      "transaction": {
        "from": "0xc1951ef408265a3b90d07b0be030e63ccc7da6c6",
        "to": "0xf32a3225869f494ce90c07bea755a24aa2182479",
        "gas": "0xfb8e",
        "value": "0x0",
        "input": "0x0c6b4b4f000000000000000000000000dd6c16abe063d7ed292eb04c8540f916d116d8150000000000000000000000000000000000000000000000000000000000000002",
        "nonce": "0x153",
        "chainId": "0x6545"
      },
      "additionalContracts": [],
      "isFixedGasLimit": false
    }
  ],
  "receipts": [
    {
      "status": "0x1",
      "cumulativeGasUsed": "0xa3cd",
      "logs": [],
      "logsBloom": "0x00000000000000000000000000000000000000000000000000000000000000000000000000000000000000000000000000000000000000000000000000000000000000000000000000000000000000000000000000000000000000000000000000000000000000000000000000000000000000000000000000000000000000000000000000000000000000000000000000000000000000000000000000000000000000000000000000000000000000000000000000000000000000000000000000000000000000000000000000000000000000000000000000000000000000000000000000000000000000000000000000000000000000000000000000000000",
      "type": "0x0",
      "transactionHash": "0xdd6fccd8a6befd642df9fb0bbcc0a337807f480157b65af6fa5d8d6d2ed1fe49",
      "transactionIndex": "0x0",
      "blockHash": "0xf16a9d2c6fe031341d34f8ff4387142acc6f98723802286eef6ea97ff0a337a5",
      "blockNumber": "0x134ac2a",
      "gasUsed": "0xa3cd",
      "effectiveGasPrice": "0x5d21dba00",
      "from": "0xc1951ef408265a3b90d07b0be030e63ccc7da6c6",
      "to": "0xf32a3225869f494ce90c07bea755a24aa2182479",
      "contractAddress": null
    }
  ],
  "libraries": [],
  "pending": [],
  "returns": {},
  "timestamp": 1734095517,
  "chain": 25925,
  "commit": "85e0b14"
}